{
  "contractName": "COTRUGLIDiplomaVerification",
  "abi": [
    {
      "inputs": [],
      "stateMutability": "nonpayable",
      "type": "constructor"
    },
    {
      "inputs": [
        {
          "internalType": "string",
          "name": "digitalFingerprint",
          "type": "string"
        }
      ],
      "name": "startSignatures",
      "outputs": [],
      "stateMutability": "nonpayable",
      "type": "function"
    },
    {
      "inputs": [
        {
          "internalType": "string",
          "name": "digitalFingerprint",
          "type": "string"
        }
      ],
      "name": "verifyDiploma",
      "outputs": [
        {
          "internalType": "bool",
          "name": "_confirmed",
          "type": "bool"
        },
        {
          "internalType": "uint256",
          "name": "_timestamp",
          "type": "uint256"
        }
      ],
      "stateMutability": "view",
      "type": "function"
    },
    {
      "inputs": [],
      "name": "removeContract",
      "outputs": [],
      "stateMutability": "nonpayable",
      "type": "function"
    }
  ],
  "bytecode": "0x608060405234801561001057600080fd5b50336000806101000a81548173ffffffffffffffffffffffffffffffffffffffff021916908373ffffffffffffffffffffffffffffffffffffffff160217905550610502806100606000396000f3fe608060405234801561001057600080fd5b50600436106100415760003560e01c8063483a11051461004657806369b486cb14610101578063fe389e09146101d9575b600080fd5b6100ff6004803603602081101561005c57600080fd5b810190808035906020019064010000000081111561007957600080fd5b82018360208201111561008b57600080fd5b803590602001918460018302840111640100000000831117156100ad57600080fd5b91908080601f016020809104026020016040519081016040528093929190818152602001838380828437600081840152601f19601f8201169050808301925050505050505091929192905050506101e3565b005b6101ba6004803603602081101561011757600080fd5b810190808035906020019064010000000081111561013457600080fd5b82018360208201111561014657600080fd5b8035906020019184600183028401116401000000008311171561016857600080fd5b91908080601f016020809104026020016040519081016040528093929190818152602001838380828437600081840152601f19601f8201169050808301925050505050505091929192905050506102db565b6040518083151581526020018281526020019250505060405180910390f35b6101e161045b565b005b600180826040518082805190602001908083835b6020831061021a57805182526020820191506020810190506020830392506101f7565b6001836020036101000a038019825116818451168082178552505050505050905001915050908152602001604051809103902060010160006101000a81548160ff021916908315150217905550426001826040518082805190602001908083835b6020831061029e578051825260208201915060208101905060208303925061027b565b6001836020036101000a03801982511681845116808217855250505050505090500191505090815260200160405180910390206000018190555050565b600080600115156001846040518082805190602001908083835b6020831061031857805182526020820191506020810190506020830392506102f5565b6001836020036101000a038019825116818451168082178552505050505050905001915050908152602001604051809103902060010160009054906101000a900460ff16151514156103df5760019150816001846040518082805190602001908083835b6020831061039f578051825260208201915060208101905060208303925061037c565b6001836020036101000a03801982511681845116808217855250505050505090500191505090815260200160405180910390206000015491509150610456565b60009150816001846040518082805190602001908083835b6020831061041a57805182526020820191506020810190506020830392506103f7565b6001836020036101000a038019825116818451168082178552505050505050905001915050908152602001604051809103902060000154915091505b915091565b60008054906101000a900473ffffffffffffffffffffffffffffffffffffffff1673ffffffffffffffffffffffffffffffffffffffff163373ffffffffffffffffffffffffffffffffffffffff16146104b357600080fd5b3373ffffffffffffffffffffffffffffffffffffffff16fffea264697066735822122002ed36fe5eff9ed1af82042d1b4420b3f24eba4580ea421b7fa58330c1dce3fa64736f6c63430007000033",
  "immutableReferences": {},
  "source": "/*\r\n**   Signed Digital Asset - A contract to store signatures of digital assets.\r\n**   COTRUGLI Business School\r\n*/\r\n\r\n// SPDX-License-Identifier: MIT\r\npragma solidity =0.7.0;\r\n\r\ncontract COTRUGLIDiplomaVerification {\r\n    \r\n    address owner;\r\n    \r\n    constructor() {\r\n       owner = msg.sender;\r\n    }\r\n    \r\n    modifier isOwner() { if (msg.sender != owner) revert(); _; }\r\n\r\n    struct Diploma {\r\n        uint lastUpdated;\r\n        bool exists;\r\n    }\r\n    \r\n    mapping (string  => Diploma) diplomasMapping;\r\n    \r\n    function startSignatures(string memory digitalFingerprint) public {\r\n        diplomasMapping[digitalFingerprint].exists = true;\r\n        diplomasMapping[digitalFingerprint].lastUpdated = block.timestamp;\r\n    }\r\n\t\r\n\t\r\n\t\tfunction verifyDiploma(string memory digitalFingerprint) public view returns(bool _confirmed, uint _timestamp) {\r\n            if (diplomasMapping[digitalFingerprint].exists == true){\r\n                return (_confirmed = true, diplomasMapping[digitalFingerprint].lastUpdated);\r\n            } else  {\r\n                return (_confirmed = false, diplomasMapping[digitalFingerprint].lastUpdated);\r\n            }\r\n\t\t}\r\n\t\r\n\t function removeContract() public isOwner {\r\n        selfdestruct(msg.sender);\r\n    }\r\n    \r\n}",
  "sourcePath": "C:\\Users\\Ivan\\Projekti\\playground\\coreui-free-react-admin-template\\SmartContracts\\contracts\\COTRUGLIDiplomaVerification.sol",
  "compiler": {
    "name": "solc",
    "version": "0.7.0+commit.9e61f92b.Emscripten.clang"
  },
  "schemaVersion": "3.4.3",
  "updatedAt": "2022-05-11T21:53:16.173Z",
  "devdoc": {
    "kind": "dev",
    "methods": {},
    "version": 1
  },
  "userdoc": {
    "kind": "user",
    "methods": {},
    "version": 1
  }
}