{
  "contractName": "COTRUGLIDiplomaVerification",
  "abi": [
    {
      "inputs": [],
      "stateMutability": "nonpayable",
      "type": "constructor"
    },
    {
      "inputs": [
        {
          "internalType": "address",
          "name": "_toApprove",
          "type": "address"
        }
      ],
      "name": "approveAddress",
      "outputs": [],
      "stateMutability": "nonpayable",
      "type": "function"
    },
    {
      "inputs": [
        {
          "internalType": "address",
          "name": "_toRemove",
          "type": "address"
        }
      ],
      "name": "removeApprovedAddress",
      "outputs": [],
      "stateMutability": "nonpayable",
      "type": "function"
    },
    {
      "inputs": [
        {
          "internalType": "string",
          "name": "_digitalFingerprint",
          "type": "string"
        }
      ],
      "name": "startSignatures",
      "outputs": [],
      "stateMutability": "nonpayable",
      "type": "function"
    },
    {
      "inputs": [
        {
          "internalType": "string",
          "name": "_digitalFingerprint",
          "type": "string"
        }
      ],
      "name": "verifyDiploma",
      "outputs": [
        {
          "internalType": "bool",
          "name": "_confirmed",
          "type": "bool"
        },
        {
          "internalType": "uint256",
          "name": "_timestamp",
          "type": "uint256"
        }
      ],
      "stateMutability": "view",
      "type": "function"
    },
    {
      "inputs": [],
      "name": "removeContract",
      "outputs": [],
      "stateMutability": "nonpayable",
      "type": "function"
    }
  ],
  "bytecode": "0x608060405234801561001057600080fd5b50336000806101000a81548173ffffffffffffffffffffffffffffffffffffffff021916908373ffffffffffffffffffffffffffffffffffffffff1602179055506100603361006560201b60201c565b61011b565b60008054906101000a900473ffffffffffffffffffffffffffffffffffffffff1673ffffffffffffffffffffffffffffffffffffffff163373ffffffffffffffffffffffffffffffffffffffff16146100bd57600080fd5b6001600260008373ffffffffffffffffffffffffffffffffffffffff1673ffffffffffffffffffffffffffffffffffffffff16815260200190815260200160002060000160006101000a81548160ff02191690831515021790555050565b6108758061012a6000396000f3fe608060405234801561001057600080fd5b50600436106100575760003560e01c806320f1d85b1461005c578063483a1105146100a057806369b486cb1461015b578063fabf657a14610233578063fe389e0914610277575b600080fd5b61009e6004803603602081101561007257600080fd5b81019080803573ffffffffffffffffffffffffffffffffffffffff169060200190929190505050610281565b005b610159600480360360208110156100b657600080fd5b81019080803590602001906401000000008111156100d357600080fd5b8201836020820111156100e557600080fd5b8035906020019184600183028401116401000000008311171561010757600080fd5b91908080601f016020809104026020016040519081016040528093929190818152602001838380828437600081840152601f19601f820116905080830192505050505050509192919290505050610337565b005b6102146004803603602081101561017157600080fd5b810190808035906020019064010000000081111561018e57600080fd5b8201836020820111156101a057600080fd5b803590602001918460018302840111640100000000831117156101c257600080fd5b91908080601f016020809104026020016040519081016040528093929190818152602001838380828437600081840152601f19601f820116905080830192505050505050509192919290505050610565565b6040518083151581526020018281526020019250505060405180910390f35b6102756004803603602081101561024957600080fd5b81019080803573ffffffffffffffffffffffffffffffffffffffff1690602001909291905050506106e5565b005b61027f61079b565b005b60008054906101000a900473ffffffffffffffffffffffffffffffffffffffff1673ffffffffffffffffffffffffffffffffffffffff163373ffffffffffffffffffffffffffffffffffffffff16146102d957600080fd5b6000600260008373ffffffffffffffffffffffffffffffffffffffff1673ffffffffffffffffffffffffffffffffffffffff16815260200190815260200160002060000160006101000a81548160ff02191690831515021790555050565b60011515600260003373ffffffffffffffffffffffffffffffffffffffff1673ffffffffffffffffffffffffffffffffffffffff16815260200190815260200160002060000160009054906101000a900460ff161515146103e3576040517f08c379a000000000000000000000000000000000000000000000000000000000815260040180806020018281038252603381526020018061080d6033913960400191505060405180910390fd5b600015156001826040518082805190602001908083835b6020831061041d57805182526020820191506020810190506020830392506103fa565b6001836020036101000a038019825116818451168082178552505050505050905001915050908152602001604051809103902060010160009054906101000a900460ff1615151461046d57600080fd5b600180826040518082805190602001908083835b602083106104a45780518252602082019150602081019050602083039250610481565b6001836020036101000a038019825116818451168082178552505050505050905001915050908152602001604051809103902060010160006101000a81548160ff021916908315150217905550426001826040518082805190602001908083835b602083106105285780518252602082019150602081019050602083039250610505565b6001836020036101000a03801982511681845116808217855250505050505090500191505090815260200160405180910390206000018190555050565b600080600115156001846040518082805190602001908083835b602083106105a2578051825260208201915060208101905060208303925061057f565b6001836020036101000a038019825116818451168082178552505050505050905001915050908152602001604051809103902060010160009054906101000a900460ff16151514156106695760019150816001846040518082805190602001908083835b602083106106295780518252602082019150602081019050602083039250610606565b6001836020036101000a038019825116818451168082178552505050505050905001915050908152602001604051809103902060000154915091506106e0565b60009150816001846040518082805190602001908083835b602083106106a45780518252602082019150602081019050602083039250610681565b6001836020036101000a038019825116818451168082178552505050505050905001915050908152602001604051809103902060000154915091505b915091565b60008054906101000a900473ffffffffffffffffffffffffffffffffffffffff1673ffffffffffffffffffffffffffffffffffffffff163373ffffffffffffffffffffffffffffffffffffffff161461073d57600080fd5b6001600260008373ffffffffffffffffffffffffffffffffffffffff1673ffffffffffffffffffffffffffffffffffffffff16815260200190815260200160002060000160006101000a81548160ff02191690831515021790555050565b60008054906101000a900473ffffffffffffffffffffffffffffffffffffffff1673ffffffffffffffffffffffffffffffffffffffff163373ffffffffffffffffffffffffffffffffffffffff16146107f357600080fd5b3373ffffffffffffffffffffffffffffffffffffffff16fffe546869732061646472657373206973206e6f7420617070726f76656420746f2065766f6b6520746869732066756e6374696f6ea26469706673582212209055b631eeaa6f694270fa2576fe1b2da159b0eb4fc938ddf6a64d51665e537264736f6c63430007000033",
  "immutableReferences": {},
  "source": "/*\r\n**   Signed Digital Asset - A contract to store signatures of digital assets.\r\n**   COTRUGLI Business School\r\n*/\r\n\r\n// SPDX-License-Identifier: MIT\r\npragma solidity =0.7.0;\r\n\r\ncontract COTRUGLIDiplomaVerification {\r\n    \r\n    address owner;\r\n    \r\n    constructor() {\r\n       owner = msg.sender;\r\n       approveAddress(msg.sender);\r\n    }\r\n    \r\n    modifier isOwner() { if (msg.sender != owner) revert(); _; }\r\n\r\n    struct Diploma {\r\n        uint lastUpdated;\r\n        bool exists;\r\n    }\r\n\r\n    struct ApprovedAddresses{\r\n        bool isApproved;\r\n    }\r\n    \r\n    mapping (string  => Diploma) diplomasMapping;\r\n    mapping (address => ApprovedAddresses) approvedAddressesMapping;\r\n\r\n     function approveAddress(address _toApprove) public isOwner {\r\n        approvedAddressesMapping[_toApprove].isApproved = true;\r\n    }\r\n\r\n    function removeApprovedAddress(address _toRemove) public isOwner {\r\n        approvedAddressesMapping[_toRemove].isApproved = false;\r\n    }\r\n    \r\n    function startSignatures(string memory _digitalFingerprint) public {\r\n        require(approvedAddressesMapping[msg.sender].isApproved == true, 'This address is not approved to evoke this function');\r\n        require(diplomasMapping[_digitalFingerprint].exists == false);\r\n        diplomasMapping[_digitalFingerprint].exists = true;\r\n        diplomasMapping[_digitalFingerprint].lastUpdated = block.timestamp;\r\n    }\r\n\t\r\n\t\r\n    function verifyDiploma(string memory _digitalFingerprint) public view returns(bool _confirmed, uint _timestamp) {\r\n        if (diplomasMapping[_digitalFingerprint].exists == true){\r\n            return (_confirmed = true, diplomasMapping[_digitalFingerprint].lastUpdated);\r\n        } else  {\r\n            return (_confirmed = false, diplomasMapping[_digitalFingerprint].lastUpdated);\r\n        }\r\n    }\r\n\t\r\n\t function removeContract() public isOwner {\r\n        selfdestruct(msg.sender);\r\n    }\r\n    \r\n}",
  "sourcePath": "C:\\Users\\Ivan\\Projekti\\playground\\C-D-V-S\\SmartContracts\\contracts\\COTRUGLIDiplomaVerification.sol",
  "compiler": {
    "name": "solc",
    "version": "0.7.0+commit.9e61f92b.Emscripten.clang"
  },
  "schemaVersion": "3.4.3",
  "updatedAt": "2022-05-17T11:55:39.914Z",
  "devdoc": {
    "kind": "dev",
    "methods": {},
    "version": 1
  },
  "userdoc": {
    "kind": "user",
    "methods": {},
    "version": 1
  }
}